:100000000C945E000C9486000C9486000C94860080
:100010000C9486000C9486000C9486000C94860048
:100020000C9486000C9486000C9486000C94D304E7
:100030000C9486000C9486000C9486000C94860028
:100040000C9431040C9486000C94A1040C947B0451
:100050000C9486000C9486000C9486000C94860008
:100060000C9486000C9486000000000024002700F9
:100070002A0000000000250028002B0004040404CE
:100080000404040402020202020203030303030342
:10009000010204081020408001020408102001021F
:1000A00004081020000000080002010000030407FB
:1000B0000000000000000000AA05DD0711241FBE9B
:1000C000CFEFD8E0DEBFCDBF11E0A0E0B1E0ECEAB9
:1000D000F5E102C005900D92A832B107D9F722E0F0
:1000E000A8E2B1E001C01D92AD30B207E1F710E027
:1000F000CDE5D0E004C02197FE010E94C308CC35B5
:10010000D107C9F70E94F0050C94C90A0C940000AD
:100110000895AF92BF92CF92DF92EF92FF920F932A
:100120001F93CF93DF936C017B018B01040F151F8D
:10013000EB015E01AE18BF08C017D10759F06991F5
:10014000D601ED91FC910190F081E02DC601099559
:10015000892B79F7C501DF91CF911F910F91FF9006
:10016000EF90DF90CF90BF90AF900895FC01538D3A
:10017000448D252F30E0842F90E0821B930B541781
:1001800010F0CF96089501970895FC01918D828D0E
:10019000981761F0A28DAE0FBF2FB11D5D968C91A7
:1001A000928D9F5F9F73928F90E008958FEF9FEFE6
:1001B00008952FB7F8948091530190915401A09124
:1001C0005501B09156012FBF80935F01909360015C
:1001D000A0936101B093620187E591E00E94C500A0
:1001E00097FF26C02FB7F894809153019091540146
:1001F000A0915501B09156012FBF40915F015091E0
:1002000060016091610170916201841B950BA60BE6
:10021000B70B40915B0150915C0160915D01709161
:100220005E0184179507A607B707B0F28FEF9FEF1F
:100230000895FC01918D828D981731F0828DE80F21
:10024000F11D858D90E008958FEF9FEF0895FC01DB
:10025000918D228D892F90E0805C9F4F821B9109A8
:100260008F739927089587E591E00E94270121E087
:10027000892B09F420E0822F089580E090E0892BFB
:1002800029F00E94330181110C9400000895FC01B3
:10029000A48DA80FB92FB11DA35ABF4F2C91848DE7
:1002A00090E001968F739927848FA689B7892C9344
:1002B000A089B1898C91837080648C93938D848D97
:1002C000981306C00288F389E02D80818F7D80839A
:1002D0000895EF92FF920F931F93CF93DF93EC015A
:1002E00081E0888F9B8D8C8D98131AC0E889F989DD
:1002F000808185FF15C09FB7F894EE89FF896083E0
:10030000E889F98980818370806480839FBF81E060
:1003100090E0DF91CF911F910F91FF90EF900895A2
:10032000F62E0B8D10E00F5F1F4F0F731127E02E7D
:100330008C8D8E110CC00FB607FCFACFE889F989B5
:10034000808185FFF5CFCE010E944701F1CFEB8D73
:10035000EC0FFD2FF11DE35AFF4FF0829FB7F89489
:100360000B8FEA89FB8980818062CFCFCF93DF93A7
:10037000EC01888D8823B9F0AA89BB89E889F989BD
:100380008C9185FD03C0808186FD0DC00FB607FCF2
:10039000F7CF8C9185FFF2CF808185FFEDCFCE0125
:1003A0000E944701E9CFDF91CF91089590E0FC01D1
:1003B000EC55FF4F2491FC01E057FF4F3491FC01B5
:1003C000E458FF4FE491EE23C9F0222339F02330A3
:1003D00001F1A8F4213019F1223029F1F0E0EE0FFB
:1003E000FF1FEE58FF4FA591B4918FB7F894EC9191
:1003F000611126C030953E233C938FBF089527306E
:10040000A9F02830C9F0243049F7809180008F7D11
:1004100003C0809180008F7780938000DFCF84B508
:100420008F7784BDDBCF84B58F7DFBCF8091B0000B
:100430008F778093B000D2CF8091B0008F7DF9CFBD
:100440003E2BDACFCF92DF92EF92FF92CF93DF93E2
:10045000EC01603282E07807CCF5653B710514F061
:1004600064EB70E0898128E830E0281B310987FDC2
:100470003395220F331F220F331F6901330FEE080C
:10048000FF088A8128E532E0281B310987FD339572
:10049000220F331F220F331F032E000C440B550B6A
:1004A0002C193D094E095F09DB0177FF02C0B0E05E
:1004B000A0E00E94470824EB30E040E050E00E94BA
:1004C0001D08C20ED31EE41EF51EB601E881EC30F5
:1004D00070F5298188E890E0821B910927FD9395AA
:1004E000880F991F880F991F681779077CF02A8158
:1004F00088E592E0821B910927FD9395880F991F4B
:10050000880F991F681779070CF4CB010297880FA1
:10051000991F4FB7F8942E2F30E0F901EE0FFF1F0F
:10052000E20FF31FE65DFE4F928381834FBFDF91A1
:10053000CF91FF90EF90DF90CF900895CF93DF930E
:10054000DC018C918C3008F06DC0CB01FB01E057D1
:10055000FF4F249184589F4FFC018491882399F088
:1005600090E0880F991FFC01E859FF4FC591D49185
:10057000FC01EE58FF4F859194918FB7F894E88174
:10058000E22BE8838FBF8C91282F30E0F901EE0F2A
:10059000FF1FE20FF31FE65DFE4F962F9F736081F2
:1005A000607C692B608311961C92119712961C92A5
:1005B00012972CE0622F0E94B708829FB00111248D
:1005C00030E020E0AB01420F531FFA01EE0FFF1F96
:1005D000E40FF51FE65DFE4F908196FD16C02F5F7C
:1005E0003F4F2C30310571F781110FC01092800000
:1005F00082E0809381001092850010928400B19A6D
:1006000080916F00826080936F00EC918E2F90E05C
:10061000FC01EE0FFF1FE80FF91FE65DFE4F808122
:10062000806480838C91DF91CF910895CF93DF9385
:10063000EC0180910302909104020097E9F0688137
:10064000798161157105B1F0409105025091060262
:100650002C813D814217530768F00E94B40A8C81B7
:100660009D8190930802809307021D821C82DF9176
:10067000CF9108950E946509888199819093040221
:10068000809303028A819B819093060280930502E6
:100690008C819D81909308028093070219821882B1
:1006A0001B821A82E2CFCF93DF93EC01888199817C
:1006B000009711F00E946509198218821D821C8220
:1006C0001B821A82DF91CF910895FC018081918174
:1006D000009711F00C9465090895FC01448155813F
:1006E00080910702909108028417950780F080910D
:1006F000030290910402009751F0608171816115AD
:10070000710529F00E94BB0A21E0892B09F020E045
:10071000822F08958091030290910402009711F0B6
:100720000C94E10760E070E0CB0108950F931F93F4
:10073000CF93DF93EC0188819981009759F02A814A
:100740003B812617370730F081E0DF91CF911F9171
:100750000F9108958B016F5F7F4F0E94EE09009704
:1007600059F0998388831B830A832C813D81232B35
:1007700059F7FC011082E8CF80E0E7CFEF92FF92BB
:100780000F931F93CF93DF93EC017B0119821882A3
:100790001B821A821D821C82FB0101900020E9F756
:1007A00031978F01061B170BB8010E949603811128
:1007B00009C0CE01DF91CF911F910F91FF90EF9073
:1007C0000C9453031D830C83B70188819981DF91B9
:1007D000CF911F910F91FF90EF900C94B40ADF928C
:1007E000EF92FF920F931F93CF93DF938C016AE1F7
:1007F00071E00E94BE038091070290910802039766
:10080000F0F0C0910302D0910402DB801B8222969B
:1008100071F0FE0101900020E9F731977F01EC1A99
:10082000FD0AB701C8010E949603811111C0C801D9
:100830000E945303E0910302F0910402D382C801A5
:10084000DF91CF911F910F91FF90EF90DF9008956E
:10085000F801F582E482BE01808191810E94B40A90
:10086000E9CF1F920F920FB60F9211242F933F934F
:100870008F939F93AF93BF938091530190915401B5
:10088000A0915501B09156013091520123E0230F00
:100890002D3758F50196A11DB11D2093520180936B
:1008A000530190935401A0935501B0935601809148
:1008B0004E0190914F01A0915001B09151010196CC
:1008C000A11DB11D80934E0190934F01A093500143
:1008D000B0935101BF91AF919F918F913F912F9113
:1008E0000F900FBE0F901F90189526E8230F0296C9
:1008F000A11DB11DD2CF1F920F920FB60F921124DE
:100900002F933F934F935F936F937F938F939F9317
:10091000AF93BF93EF93FF9387E591E00E94470168
:10092000FF91EF91BF91AF919F918F917F916F91C7
:100930005F914F913F912F910F900FBE0F901F909D
:1009400018951F920F920FB60F9211242F938F9329
:100950009F93EF93FF93E0916701F091680180818D
:10096000E0916D01F0916E0182FD1BC0908180913C
:1009700070018F5F8F7320917101821741F0E091B8
:100980007001F0E0E95AFE4F958F80937001FF915E
:10099000EF919F918F912F910F900FBE0F901F900D
:1009A00018958081F4CF1F920F920FB60F921124E9
:1009B0002F933F934F935F936F937F938F939F9367
:1009C000AF93BF93CF93DF93EF93FF938091280171
:1009D000C0912901D0E087FF24C0109285001092B9
:1009E0008400809128018F5F8093280180912801E5
:1009F000082E000C990B8C179D0724F48091280178
:100A00008C30C4F1809184009091850004968034EC
:100A10009C4908F47AC080918400909185000496E6
:100A200076C080912801082E000C990B8C179D0729
:100A3000C4F6E09128018E2FEE0F990BFC01EE0F0A
:100A4000FF1FE80FF91FE65DFE4F808186FFC9CFCB
:100A5000E09128018E2FEE0F990BFC01EE0FFF1F86
:100A6000E80FF91FE65DFE4F808160E08F730E9402
:100A7000D601B7CF2091840030918500E091280104
:100A80008E2FEE0F990BFC01EE0FFF1FE80FF91FE1
:100A9000E65DFE4F81819281820F931F90938900C2
:100AA00080938800E09128018E2FEE0F990BFC01B6
:100AB000EE0FFF1FE80FF91FE65DFE4F808186FFF6
:100AC00011C0E09128018E2FEE0F990BFC01EE0F63
:100AD000FF1FE80FF91FE65DFE4F808161E08F7315
:100AE0000E94D601FF91EF91DF91CF91BF91AF911D
:100AF0009F918F917F916F915F914F913F912F9136
:100B00000F900FBE0F901F90189580E49CE9909372
:100B10008900809388008FEF80932801E3CFFC0148
:100B2000909129019C3098F481E0890F80932901EC
:100B30009083892F90E0FC01EE0FFF1FE80FF91F53
:100B4000E65DFE4F88EB9BE09283818308958FEFF3
:100B500080830895E7E5F1E01382128288EE93E046
:100B6000A0E0B0E084839583A683B7838AE091E018
:100B70009183808385EC90E09587848784EC90E076
:100B80009787868780EC90E0918B808B81EC90E05A
:100B9000938B828B82EC90E0958B848B86EC90E03B
:100BA000978B868B118E128E138E148E6AE171E0F4
:100BB00083E092E00E94BE0380E092E00E948F05F5
:100BC0008DEF91E00E948F058AEF91E00E948F05E2
:100BD00087EF91E00E948F0584EF91E00C948F05E0
:100BE000CF93DF93CDB7DEB728970FB6F894DEBF6B
:100BF0000FBECDBF789484B5826084BD84B581601A
:100C000084BD85B5826085BD85B5816085BD8091D7
:100C10006E00816080936E0010928100809181004F
:100C20008260809381008091810081608093810047
:100C3000809180008160809380008091B100846009
:100C40008093B1008091B00081608093B00080916A
:100C50007A00846080937A0080917A008260809329
:100C60007A0080917A00816080937A0080917A0086
:100C7000806880937A001092C10062E070E080E0AA
:100C800092E00E949E0264E070E08DEF91E00E948D
:100C90009E0263E070E08AEF91E00E949E0270E0A5
:100CA00060E087EF91E00E949E0264E070E084EFD4
:100CB00091E00E949E02E0916701F091680182E05C
:100CC0008083E0916301F09164011082E0916501FD
:100CD000F09166018FEC808310926F01E0916B01BF
:100CE000F0916C0186E08083E0916901F0916A01E6
:100CF000808180618083E0916901F0916A01808147
:100D000088608083E0916901F0916A018081806848
:100D10008083E0916901F0916A0180818F7D8083F9
:100D200080E0E82E80E0F82E93E0C92ED12C87E5F4
:100D300091E00E942701181619060CF073C06AE1B1
:100D400071E0CE0101960E94BE030E94D90097FD7A
:100D50001BC08F8318860D811E810F5F1F4FB80146
:100D6000CE0101960E949603882379F329813A8166
:100D70008D819E81BE01695F7F4F820F931F0E940C
:100D8000B40A1E830D83E1CFCE0101960E941603A3
:100D9000CE0101960E94650380910702909108029E
:100DA000049748F0E0910302F0910402D092080207
:100DB000C09207021382409107025091080260918D
:100DC00003027091040287E591E00E94890042E0ED
:100DD00050E068E171E087E591E00E9489006BE1F5
:100DE00071E0CE0101960E94BE03CE0101960E94E1
:100DF0006D03182FCE0101960E9465031123F1F0B7
:100E0000CE0101960E94EF03CE0101960E941603C7
:100E1000CE0101960E9465030E948A0380E092E061
:100E20000E942202E114F10409F481CF0E943301EF
:100E3000882309F47CCF0E94000079CF6DE171E036
:100E4000CE0101960E94BE03CE0101960E946D0361
:100E5000182FCE0101960E946503112389F0CE015F
:100E600001960E94EF03CE0101960E941603CE0167
:100E700001960E9465030E948A038DEF91E0D0CF16
:100E80006FE171E0CE0101960E94BE03CE01019692
:100E90000E946D03182FCE0101960E946503112355
:100EA00089F0CE0101960E94EF03CE0101960E94C7
:100EB0001603CE0101960E9465030E948A038AEF01
:100EC00091E0AECF61E271E0CE0101960E94BE03D7
:100ED000CE0101960E946D03182FCE0101960E944B
:100EE0006503112389F0CE0101960E94EF03CE0124
:100EF00001960E941603CE0101960E9465030E948E
:100F00008A0387EF91E08CCF63E271E0CE01019616
:100F10000E94BE03CE0101960E946D03182FCE01E0
:100F200001960E946503112389F0CE0101960E946B
:100F3000EF03CE0101960E941603CE0101960E9496
:100F400065030E948A0384EF91E06ACF65E271E055
:100F5000CE0101960E94BE03CE0101960E946D0350
:100F6000182FCE0101960E946503112309F45ACF70
:100F7000CE0101960E94EF03CE0101960E94160356
:100F8000CE0101960E9465030E948A0380E092E0F0
:100F90000E9422020E948A038DEF91E00E942202A9
:100FA0000E948A038AEF91E00E9422020E948A0333
:100FB00087EF91E00E942202C4CF83E092E00C947C
:100FC00065031F93FC0199278827BC01E8941191C0
:100FD0001032E9F3193010F01E30C8F31B3251F013
:100FE0001D3249F4689406C00E940808610F711D03
:100FF000811D911D119110531A30B0F33EF490955C
:101000008095709561957F4F8F4F9F4F1F910895E9
:10101000592F482F372F262F660F771F881F991FAC
:10102000660F771F881F991F620F731F841F951FFC
:10103000660F771F881F991F0895052E97FB1EF4D2
:1010400000940E94340857FD07D00E94860807FCD0
:1010500003D04EF40C94340850954095309521956A
:101060003F4F4F4F5F4F08959095809570956195D4
:101070007F4F8F4F9F4F08950E94A808A59F900D06
:10108000B49F900DA49F800D911D11240895B7FF6A
:101090000C943C080E943C08821B930B08952F92ED
:1010A0003F924F925F926F927F928F929F92AF92F8
:1010B000BF92CF92DF92EF92FF920F931F93CF9345
:1010C000DF93CDB7DEB7CA1BDB0B0FB6F894DEBFDC
:1010D0000FBECDBF09942A88398848885F846E8402
:1010E0007D848C849B84AA84B984C884DF80EE804C
:1010F000FD800C811B81AA81B981CE0FD11D0FB655
:10110000F894DEBF0FBECDBFED010895A1E21A2E07
:10111000AA1BBB1BFD010DC0AA1FBB1FEE1FFF1F9B
:10112000A217B307E407F50720F0A21BB30BE40BEB
:10113000F50B661F771F881F991F1A9469F7609532
:101140007095809590959B01AC01BD01CF010895EC
:10115000A29FB001B39FC001A39F700D811D1124F8
:10116000911DB29F700D811D1124911D0895991B31
:1011700079E004C0991F961708F0961B881F7A958E
:10118000C9F780950895EE0FFF1F0590F491E02DAB
:1011900009940F931F93CF93DF938230910510F43E
:1011A00082E090E0E0910B02F0910C0230E020E050
:1011B000B0E0A0E0309799F42115310509F44AC058
:1011C000281B390B24303105D8F58A819B816115A4
:1011D000710589F1FB0193838283FE0111C0408177
:1011E00051810281138148175907E0F048175907C8
:1011F00099F4109761F012960C93129713961C9322
:101200003296CF01DF91CF911F910F9108950093F6
:101210000B0210930C02F4CF2115310551F0421747
:10122000530738F0A901DB019A01BD01DF01F80184
:10123000C1CFEF01F9CF90930C0280930B02CDCF79
:10124000FE01E20FF31F81939193225031093983FC
:101250002883D7CF2091090230910A02232B41F431
:10126000209102013091030130930A022093090278
:1012700020910001309101012115310541F42DB774
:101280003EB74091040150910501241B350BE091BC
:101290000902F0910A02E217F307A0F42E1B3F0B9C
:1012A0002817390778F0AC014E5F5F4F24173507D8
:1012B00048F04E0F5F1F50930A024093090281933A
:1012C00091939FCFF0E0E0E09CCFCF93DF93009726
:1012D000E9F0FC01329713821282A0910B02B091C7
:1012E0000C02ED0130E020E01097A1F42081318163
:1012F000820F931F2091090230910A0228173907A3
:1013000009F061C0F0930A02E0930902DF91CF91E6
:101310000895EA01CE17DF07E8F54A815B819E0157
:1013200041155105B1F7E901FB83EA8349915991D0
:10133000C40FD51FEC17FD0761F4808191810296DF
:10134000840F951FE90199838883828193819B8310
:101350008A83F0E0E0E012968D919C9113970097BC
:10136000B9F52D913C911197CD010296820F931FF3
:101370002091090230910A022817390739F630976F
:1013800051F510920C0210920B02B0930A02A09336
:101390000902BCCFD383C28340815181840F951F42
:1013A000C817D90761F44E5F5F4F88819981480F54
:1013B000591F518340838A819B81938382832115A6
:1013C000310509F0B0CFF0930C02E0930B029ECFF1
:1013D000FD01DC01C0CF13821282D7CFB0E0A0E0C4
:1013E000E4EFF9E00C9451088C01009751F4CB0123
:1013F0000E94C9088C01C801CDB7DEB7E0E10C94AA
:101400006D08FC01E60FF71F9C0122503109E2171D
:10141000F30708F49DC0D901CD91DC911197C6174F
:10142000D70798F0C530D10530F3CE010497861761
:10143000970708F3C61BD70B2297C193D1936D93DF
:101440007C93CF010E946509D6CF5B01AC1ABD0A1F
:101450004C018C0E9D1EA0910B02B0910C02512CE0
:10146000412CF12CE12C109731F5809109029091DB
:101470000A028815990509F05CC04616570608F05F
:1014800058C08091000190910101009741F48DB7FF
:101490009EB74091040150910501841B950BE817FC
:1014A000F90708F055C0F0930A02E0930902F90128
:1014B00071836083A0CF8D919C91119712966C904F
:1014C000129713967C901397A815B90559F56C01DE
:1014D00042E0C40ED11CCA14DB0420F1AC014A194D
:1014E0005B09DA011296159780F06282738251834C
:1014F0004083D9016D937C93E114F10471F0D7011D
:101500001396FC93EE93129776CF22968C0F9D1F25
:10151000F90191838083F301EFCFF0930C02E09304
:101520000B0269CF4816590608F42C017D01D3013E
:101530009ACFCB010E94C9087C01009749F0AE0107
:10154000B8010E94AB0AC8010E946509870153CF08
:1015500010E000E050CFFB01DC0102C001900D92D1
:1015600041505040D8F70895FB01DC0101900D92E5
:101570000020E1F70895FB01DC014150504030F0BC
:101580008D910190801919F40020B9F7881B990BEF
:10159000089510E0CDE5D0E004C0FE010E94C3082C
:0C15A0002196CE35D107C9F7F894FFCF93
:1015AC0000000D0280000000000069018900B600F7
:1015BC00B6012701C50019010D0A003200330034B1
:0815CC0000350036003100007B
:00000001FF
